:020000040000FA
:08000000803102288731EF2F47
:100DD00051019101930192010800FE0012001E00D2
:100DE000FE0BEE2E00349030460196003E3095000A
:100DF000403094000800F434013477340134FA347C
:100E000000347D3400340130450190008F019101A0
:100E1000F9308D008C014E010D13903045018E008C
:100E200008007908FB007808FA00FB36FA0CFB365C
:100E3000FA0C7A084601950078080339FA00053063
:100E4000FA35FF3E031D202F7A359400080040013B
:100E5000980199019A013B309200F0309300FF30E5
:100E60009400FB307E01CE00F030C3003330B80078
:100E7000C4010430B9000430CF00BA01C501D0016B
:100E80003730BB00F030C600FF30D1003F30BC002F
:100E9000F030C700FF30D2004001921094111211BF
:100EA0001212921214119312931314149414141610
:100EB000941614179417131613177E014F15033049
:100EC00091000330A300080087312727873186313E
:100ED000E82687318731032787318631F32687312A
:100EE00040018E18742F752F892F0E1C782F792FA3
:100EF000892F0D1A7C2F7D2F892F8C120C150E1522
:100F00008D128D137D30F8000030F90087311127E4
:100F1000873140018E188D2F8E2FA22F0E1C912FFE
:100F2000922FA22F0D1E952F962FA22F8C120C15EB
:100F30000E118D168D177D30F8000030F9008731C5
:100F40001127873140018E18A62FA72FBB2F0E180F
:100F5000AA2FAB2FBB2F0D1EAE2FAF2FBB2F8C1286
:100F60000C150E118D168D177D30F8000030F9002C
:100F700087311127873140018E1CBF2FC02FD42FFE
:100F80000E1CC32FC42FD42F0D1AC72FC82FD42F38
:100F90008C120C150E158D168D137D30F800003057
:100FA000F90087311127873140018E1CD82FD92FA6
:100FB000ED2F0E18DC2FDD2FED2F0D1AE02FE12F76
:100FC000ED2F8C120C150E158D168D137D30F8003B
:100FD0000030F90087311127873180310228FB303A
:100FE000840086308500703086000030870008302D
:100FF0008631ED268731FC01FD0140018731642FE8
:020000040001F9
:04000E00ED3FE73F9C
:04001400FF3FFF3F6C
:00000001FF
